:020000040800F2
:100000007047002001010008897D0008AD7B0008D1
:10001000857D00083D020008FDA4000800000000E6
:1000200000000000000000000000000009A200081D
:10003000E955000800000000459D000861A2000885
:100040001B0100081B0100081B0100081B01000820
:100050001B0100081B0100081B0100081B01000810
:100060001B0100081B0100081B0100081B01000800
:100070001B0100081B0100081B0100081B010008F0
:100080001B0100081B0100081B010008DDA400087B
:10009000EDA40008410200081B0100081B01000834
:1000A0001B0100081B0100081B0100081B010008C0
:1000B0001B010008D9A200081B0100081B01000851
:1000C0001B0100081B0100081B0100081B010008A0
:1000D0001B0100081B0100081B0100081B01000890
:1000E000ED5500081B0100081B010008DFF80CD0CB
:1000F00000F060F800480047F9B0000870470020A1
:100100000648804706480047FEE7FEE7FEE7FEE7B1
:10011000FEE7FEE7FEE7FEE7FEE7FEE7D5A2000802
:10012000ED00000810B5431A934209D283188818CD
:1001300003E010F8011D03F8011D521EF9D210BD95
:1001400040EA01039B0703D009E008C9121F08C059
:10015000042AFAD203E011F8013B00F8013B521ED9
:10016000F9D210BDD2B201E000F8012B491EFBD23A
:1001700070470022F6E710B513460A4604461946B2
:10018000FFF7F0FF204610BD421C10F8011B0029AC
:10019000FBD1801A704710B5484304460BF0B8FAFB
:1001A000002805D00021002C02D0641E0155FAE77A
:1001B00010BD00001CB50948009009480190054693
:1001C000009C06E0E06840F0010394E807009847CF
:1001D0001034AC42F6D3FFF78DFF0000E0C10008F9
:1001E00000C2000870B58C1810F8015B15F0070309
:1001F00001D110F8013B2A1106D110F8012B03E0C0
:1002000010F8016B01F8016B5B1EF9D12B0705D4C7
:100210000023521E0DD401F8013BFAE710F8013B10
:10022000CB1A921C03E013F8015B01F8015B521E2C
:10023000F9D5A142D8D3002070BD0000FFE7FEE74A
:1002400080B540F6C000C2F2000005F0B7FC80BDEA
:1002500080B58CB002A801902821FFF78AFF019990
:1002600001220A92002008900992079006900290BD
:1002700003900490059040F6C000C2F2000005F023
:1002800099FA18B1FFE705F0B7F9FFE701200CB0C4
:1002900080BD000080B58CB00B908DF82B100992BA
:1002A0008DF823309DF8230006909DF82B00002840
:1002B00018BF012080000490002005909DF82B00BD
:1002C00018B1FFE70B98039002E00B980290FFE74C
:1002D000FFE740F6C000C2F2000005F037FC08B9A5
:1002E000FFE7F6E7099A40F6C000C2F2000002A953
:1002F00001AB05F0B3F988B1FFE79DF82B204BF671
:100300005470C0F600004BF66F71C0F60001002A71
:1003100018BF0146002009F0B9FD10E09DF82B2020
:100320004BF68A70C0F600004BF6A771C0F60001CC
:10033000002A18BF0146002009F0A8FDFFE70CB015
:1003400080BD000080B582B0FFF782FF40F6C0009C
:10035000C2F20000019005F0B9FF0198022105F0FA
:1003600053F902B080BD000086B0029000200190D9
:10037000FFE7EFF31080039003980299C862EFF350
:10038000108072B60490FFE70298C06930B1FFE7B1
:1003900002990020C86101200190FFE70298808C3B
:1003A000012839DBFFE70298008AADF80200FFE779
:1003B000BDF8020078B3FFE70298C068BDF80210EC
:1003C00001EB410100EBC1000069E8B1FFE70298D1
:1003D000C068BDF8021001EB410100EBC1004069AB
:1003E00088B1FFE70298C068BDF8021001EB410137
:1003F00000EBC101002008610299888C01388884D3
:1004000002200190FFE7FFE7FFE7BDF80200013897
:10041000ADF80200CCE7FFE70298C06A05900598A6
:1004200080F31088019830B1FFE70299488A40F0C4
:1004300080004882FFE706B07047000080B588B0B2
:1004400006900591ADF81220069820B9FFE7FF202D
:100450008DF81F0020E0069841680020486105984B
:1004600000F0DCFC069B059958689A68DB68BDF8CB
:1004700012E0EC46CCF808E04FF0090ECCF804E0AE
:10048000CCF80030112300F075F88DF811009DF8BC
:1004900011008DF81F00FFE79DF91F0008B080BD17
:1004A00080B588B0049003910499002008620499F3
:1004B000C8610498808C002848D0FFE70498C06881
:1004C0000290FFE7EFF31080059005980499C86249
:1004D000EFF3108072B60690FFE70498008AADF83B
:1004E0000600FFE7BDF8060008B3FFE702980069C1
:1004F00098B1FFE7049802990AF0A2FE60B1FFE705
:100500000299002008610499888C01388884029837
:1005100040690499C861FFE7FFE7FFE7BDF80600FF
:100520000138ADF80600029818300290DAE7BDF8FD
:10053000060020B9FFE7049900208884FFE70498AB
:10054000C06A0790079880F31088FFE708B080BD65
:1005500080B582B00190019850B1FFE70198006822
:1005600030B1FFE701980068806805F0F5FEFFE70D
:1005700002B080BD10B592B08C468646169815998B
:10058000149CCDF840E0CDF83CC00E92ADF836306A
:10059000ADF83410ADF83200109830B1FFE70E9886
:1005A00018B1FFE7149820B9FFE7FF208DF8470046
:1005B000AEE00F9810990860109840F2F831C2F23E
:1005C000000108600E9810994860BDF83600109937
:1005D000088114981099C860BDF8340010990882F9
:1005E00010990020488210994861109988611099EB
:1005F000C861109A0121116210998884109988624B
:10060000ADF83000FFE7BDF83000BDF83610884285
:1006100029DAFFE70E99BDF8300000EB4002002018
:1006200021F822000E99BDF8302002EB420201EBC6
:1006300082024FF6FF7151800E99BDF8302002EB17
:10064000420201EB820148600E99BDF8302002EBB6
:10065000420201EB82018860FFE7BDF83000013003
:10066000ADF83000CFE70020ADF82E00FFE7BDF871
:100670002E00BDF83410884210DAFFE71498BDF858
:100680002E1001EB410100EBC10100200861FFE7E2
:10069000BDF82E000130ADF82E00E8E70F98C068D5
:1006A0008047109800688068006846F20041C4F2F4
:1006B0000001884203D1FFE70020069002E00E20EF
:1006C0000690FFE700210791012008900191029117
:1006D00003910491059109900E200A900F9880686B
:1006E00001A905F067F820B1FFE7FF208DF847006A
:1006F0000EE00F988068132104F086FF20B1FFE719
:10070000FF208DF8470003E000208DF84700FFE749
:100710009DF9470012B010BD83B0029000200190F7
:100720000298006880680068806900F00700019006
:100730000298806A019988423CD0FFE70298408A7B
:10074000ADF802000198029988629DF80400400704
:10075000002807D5FFE7BDF8020040F00400ADF81F
:10076000020022E0BDF802004FF6F8410840ADF863
:1007700002009DF80400C00740B1FFE7BDF8020089
:1007800040F201110843ADF80200FFE79DF80400B4
:100790008007002808D5FFE7BDF8020040F20221DB
:1007A0000843ADF80200FFE7FFE7BDF80200029939
:1007B0004882FFE703B07047F0B595B09E461446F7
:1007C0000D460646219820981F991E991D9A1C9B3C
:1007D000DDF86CC01A9F139612951194CDF840E085
:1007E000ADF83EC0ADF83C30ADF83A20ADF8381069
:1007F0008DF83700139820B9FFE7FF208DF85300DC
:1008000067E1119820B9FFE71398C0691190FFE7DD
:100810001399002008609DF83700FF2804D1FFE7F6
:100820001399012008600EE09DF83700012805DBD0
:10083000FFE79DF83700802804DBFFE7FF208DF8F5
:10084000530046E1FFE71398806B01F037F88DF80D
:1008500036009DF8360028B1FFE79DF836008DF888
:10086000530036E11398006820B1FFE7ED208DF8C2
:1008700053002EE1139B40F21800C2F20000006802
:10088000D0F804E00EF10C025968D8691B6A0EF129
:100890006C0C0EF118049DF83750219EEE46CEF8F0
:1008A0001460CEF81050CEF80C400124CEF8084069
:1008B000CEF804C04FF0110CCEF800C000F010FBD1
:1008C0008DF836009DF8360028B1FFE79DF8360018
:1008D0008DF85300FDE013984568006940F2180157
:1008E000C2F20001096849689031119A9DF83730C9
:1008F000BDF83EC0BDF83C4003F5E066219FEE46E2
:10090000CDF828E0CEF82070CEF81C600726CEF88F
:100910001860CEF814500026CEF81060CEF80C60A7
:10092000CEF80850CEF80440CEF800C001F0DEFD4D
:100930008DF836009DF8360028B1FFE79DF83600A7
:100940008DF85300C5E0139A119954685069926963
:1009500040F21803C2F200031B685B6803F1840CC9
:10096000219BEE46CEF80C300823CEF80830CEF8A6
:100970000440CEF800C000F025FD8DF836009DF84B
:10098000360028B1FFE79DF836008DF85300A0E04F
:1009900040F21800C2F2000000684068B4300C90C9
:1009A0000020ADF82E00FFE7BDF92E0000283EDC48
:1009B000FFE71398426ABDF92E00A82100FB012031
:1009C00010990C9A02F10C030C939DF83730BDF886
:1009D0003AC0DDF84CE0DEF80440BDF92EE00EF13F
:1009E00007050EF10606219FEE46CEF81470B6B24A
:1009F000CEF81060CEF80C40ADB2CEF80850CEF86C
:100A00000440CEF800C002F017FB8DF836009DF8C8
:100A1000360028B1FFE79DF836008DF8530058E006
:100A2000FFE7BDF82E000130ADF82E00BCE71398AB
:100A30004268806A40F21801C2F200010968496800
:100A40006031219BEC46CCF80030022303F02CFCF3
:100A50008DF836009DF8360028B1FFE79DF8360086
:100A60008DF8530035E013984568C06A119940F23B
:100A70001802C2F200021268D2F804E00EF1240259
:100A80000EF130030EF13C0C0EF1A804219EEE464F
:100A9000CEF818600026CEF81460CEF8105001266B
:100AA000CEF80C60CEF80850CEF80440CEF800C066
:100AB00003F072F98DF836009DF8360028B1FFE793
:100AC0009DF836008DF8530003E000208DF85300A8
:100AD000FFE79DF9530015B0F0BD00002DE9F0418E
:100AE00094B0DDF868C01290119110928DF83F30EB
:100AF000129820B9FFE7FF208DF84F00F4E09DF831
:100B00003F00012809DBFFE79DF83F007F2804DC58
:100B1000FFE71298006858B1FFE7129801684FF09C
:100B2000FF30002918BF6FF012008DF84F00DBE096
:100B300040F21800C2F2000001684968CC310E9101
:100B400000684068FC300D900020ADF83200FFE7EF
:100B5000BDF93200032856DCFFE70020ADF82E0077
:100B6000BDF9320003280BDCFFE7BDF832109DF819
:100B70003F0040EA012000F50070ADF82E00FFE7CD
:100B80001298C36A026BBDF932004FF4BA7100FBD0
:100B900001201099119ABDF82EC00E9C04F10C0E84
:100BA000CDF838E00D9D05F10C0ECDF834E0DDF800
:100BB00048E0DEF80460BDF832E00EF10307DDF82E
:100BC0006880EE46CEF81480BFB2CEF81070CEF832
:100BD0000C60CEF80850CEF80440CEF800C001F00A
:100BE0003DFF8DF831009DF8310028B1FFE79DF8F9
:100BF00031008DF84F0077E0FFE7BDF8320001309B
:100C0000ADF83200A4E740F21800C2F2000001681B
:100C1000496801F596710A910068406800F5AE7068
:100C200009900020ADF82200FFE7BDF9220003285B
:100C300056DCFFE70020ADF81E00BDF922000328B6
:100C40000BDCFFE7BDF822109DF83F0040EA0120D1
:100C500000F5C070ADF81E00FFE71298C36A426B42
:100C6000BDF922004FF4B67100FB01201099119AD2
:100C7000BDF81EC00A9C04F10C0ECDF828E0099DB9
:100C800005F10C0ECDF824E0DDF848E0DEF8046054
:100C9000BDF822E00EF10207DDF86880EE46CEF8DE
:100CA0001480BFB2CEF81070CEF80C60CEF80850A9
:100CB000CEF80440CEF800C003F014FC8DF82100FB
:100CC0009DF8210028B1FFE79DF821008DF84F0025
:100CD0000AE0FFE7BDF822000130ADF82200A4E7EA
:100CE00000208DF84F00FFE79DF94F0014B0BDE8DC
:100CF000F081000084B0DDF818C0DDF814C0DDF824
:100D000010C00390ADF80A10ADF80820ADF8063019
:100D100000208DF805000398B0B3FFE7059898B35D
:100D2000FFE7069880B3FFE7BDF80A000399098939
:100D3000884229DAFFE703984068BDF80A1001EB02
:100D4000410100EB810000900598009948600698E9
:100D500000998860BDF808006FF3DF20049A00F561
:100D60000041002A18BF084600990880BDF8060017
:100D7000102161F3DF20009948800398806910B149
:100D8000FFE700BFFFE703E0FF208DF80500FFE766
:100D90009DF9050004B0704780B586B002900191BE
:100DA00000208DF803000198006970B1FFE70298F8
:100DB000006A30B9FFE70299488A40F0080048828B
:100DC000FFE7F7208DF80300FFE7FFE7EFF3108060
:100DD000039003980299C862EFF3108072B60490F2
:100DE000FFE7029801990AF02BFA28B1FFE7019872
:100DF00040690299C86107E00199012008610299E0
:100E0000888C01308884FFE70298C06A05900598B5
:100E100080F310889DF9030006B080BD80B582B0D4
:100E20000190019828B1FFE70198806805F094FAD5
:100E3000FFE702B080BD000080B582B0019001984C
:100E4000006860B1FFE701980068806805F03EFA2D
:100E500020B9FFE7019901204861FFE7FFE702B0F1
:100E600080BD000080B585B0844608980798CDF80D
:100E700010C0ADF80E10ADF80C2002938DF80700ED
:100E800000200090049838B3FFE7BDF80E000499E5
:100E9000098A884220DAFFE70498C068BDF80E107E
:100EA00001EB410100EBC1000090BDF80C006FF3B5
:100EB000DF20029A00F50041002A18BF0846009979
:100EC00008609DF8070000990871009900200861EA
:100ED000089800994861FFE7009805B080BD0000C0
:100EE00010B58CB094468E4604461398129811990A
:100EF00010990F9A0E9A0A94CDF824E0CDF820C0EC
:100F000007938DF81B20ADF818108DF817000020FE
:100F10008DF816000A98F0B1FFE70898D8B1FFE7FE
:100F2000079828B9FFE79DF81B00012813DCFFE7AD
:100F30000F9880B1FFE7099868B1FFE79DF81700A7
:100F4000012808DBFFE79DF817007F2803DCFFE797
:100F5000119820B9FFE7FF208DF82F00B5E00A981F
:100F60005021FFF706F909980A994861089801226B
:100F70000023194607F0C4F80A99C8600A98C068A7
:100F800068B9FFE7139830B1FFE7089807F048F811
:100F900013990860FFE7F4208DF82F0095E00A9878
:100FA000C0680021017007980A9A90619DF81B00A3
:100FB0000A9A10770F9804AA012307F049FA8DF8CE
:100FC00015009DF9150040B9FFE704984FF60001A0
:100FD000C7F6FF71084212D0FFE7139830B1FFE760
:100FE0000F9807F01DF813990860FFE79DF91500A9
:100FF00020B1FFE7F4208DF82F0066E0FFE79DF8B1
:1010000017008030ADF80E000498C043C00F0A9955
:1010100048620A9800630A9948F63500C0F6000055
:1010200048630A9948F64520C0F6000088630F9887
:101030000A99303106F0E0FE8DF815009DF9150093
:1010400068B1FFE7139830B1FFE70F9806F0E8FFAB
:1010500013990860FFE7F4208DF82F0035E09DF824
:1010600017000A9981F828000998BDF81810BDF8F2
:101070000E20EE460023CEF804304FF0080CCEF8D8
:1010800000C0FFF7EFFE0A99C8620A98C06A20B94B
:10109000FFE7FF208DF82F0017E00A9800640A99F7
:1010A00048F23970C0F6000048640A9948F62530C5
:1010B000C0F60000886411980A99403106F09CFE41
:1010C0009DF816008DF82F00FFE79DF92F000CB05A
:1010D00010BD000080B588B007900691059204937A
:1010E00007984069408AADF80E00BDF80E000799D8
:1010F000098A884200F09A80FFE7BDF80E00079940
:10110000098A4840ADF80C00BDF80E000799088226
:10111000BDF80C0040F20111084210D0FFE707981B
:10112000BDF80E1040F201121140002918BF012134
:101130006A4600231360012203F096FDFFE7BDF825
:101140000C00800700280ED5FFE70798BDF80E10A9
:10115000C1F340016B4600221A60072248F22013B7
:1011600003F082FDFFE7BDF80C00400700280ED514
:10117000FFE70798BDF80E10C1F380016B4600220F
:101180001A60122248F2401303F06EFDFFE7BDF82B
:101190000C00000700280ED5FFE70798BDF80E10D9
:1011A000C1F3C0016B4600221A60142248F21013EA
:1011B00003F05AFDFFE7BDF80C00000600280DD52E
:1011C000FFE707989DF80E10C9096B4600221A60C8
:1011D00015224FF4014303F047FDFFE7BDF80C0073
:1011E000800500280ED5FFE70798BDF80E10C1F363
:1011F00040216B4600221A60062248F2201303F0B9
:1012000033FDFFE7BDF80C00000500280DD5FFE712
:101210000798BDF80E10C1F3C0216B4600221A607A
:1012200013231A4603F020FDFFE7FFE700208DF8A7
:101230000B000798407938B1FFE79DF80B0040F0AC
:1012400001008DF80B00FFE70798807820B9FFE7D1
:101250000798C07838B1FFE79DF80B0040F0100008
:101260008DF80B00FFE70798007A20B9FFE7079891
:10127000407A38B1FFE79DF80B0040F080008DF810
:101280000B00FFE79DF80B000799C96808700698E6
:1012900008B9FFE776E00798007F022871DBFFE7D7
:1012A0000798807F8DF80A009DF80A000799497F0A
:1012B000884265D0FFE70798C06A006900285FD1BF
:1012C000FFE79DF80B30079881699DF80A2051F8D7
:1012D000320040EA034041F8320007988269C16A4F
:1012E0009DF80A3002EBC30052F83320C1F8052004
:1012F0004068C1F8090007994869C96AFFF74CFDC1
:101300009DF80A0001308DF80A00C0B20799097FE4
:10131000884204DAFFE79DF80A00019002E000200D
:101320000190FFE70198079988770798C07F012807
:101330000ED1FFE707990220C87707986A46002177
:101340001160012120224FF4805303F08DFC16E040
:101350000798C07F022811D1FFE70798417F807F5F
:1013600088420BD1FFE707980023C37707986946A7
:101370000B602022194603F077FCFFE7FFE7FFE749
:10138000FFE7FFE708B080BD85B0049003910498A3
:101390000290039800798DF80700039805300090BB
:1013A0009DF8070001280AD1FFE70098007802990C
:1013B0004870FFE702990120C860FFE7FFE705B02A
:1013C0007047000080B58AB084460F980E98DDF80B
:1013D00034E0DDF830E0CDF820C0079106928DF8BA
:1013E0001730ADF81400089860B1FFE7079848B1CE
:1013F000FFE7069830B1FFE70C9818B1FFE70D98AA
:1014000020B9FFE7FF208DF82700A6E008983021DB
:10141000FEF7AFFE0798089908600698089948609B
:101420000D9808998861BDF81400089988830C9874
:10143000807801389DF81710884205DAFFE70C988C
:1014400080780138009003E09DF817000090FFE7D6
:1014500000980899087200208DF81200FFE79DF8A7
:1014600012000899097A88424DDAFFE70C989DF836
:1014700012100131C9B203AA012306F0FDFF8DF855
:1014800013009DF9130068B1FFE70F9830B1FFE733
:101490000C9806F0D5FD0F990860FFE7F4208DF851
:1014A00027005AE0BDF80E008DF80B000398ADF848
:1014B000080008989DF812109DF80B20BDF8083020
:1014C00000F050F88DF807009DF90700A0B1FFE784
:1014D0000F9830B1FFE70C9806F0B2FD0F99086045
:1014E000FFE79DF907000C3028B1FFE79DF80700E2
:1014F0008DF8270031E0FFE7FFE79DF8120001308B
:101500008DF81200ABE708980062089948F26D6008
:10151000C0F600004862089948F66D60C0F6000009
:1015200088620C980899203106F07CFC8DF8130035
:101530009DF9130068B1FFE70F9830B1FFE70C98F1
:1015400006F07EFD0F990860FFE7F4208DF8270074
:1015500003E000208DF82700FFE79DF927000AB07F
:1015600080BD000080B58EB00C908DF82F108DF8E6
:101570002E20ADF82C3000208DF82B000C9838B1BF
:10158000FFE79DF82F000C99097A884204DBFFE7FA
:10159000FF208DF837009BE0BDF82C00D8B3FFE7A3
:1015A0009DF82E00B8B3FFE700208DF82A00FFE772
:1015B0009DF82A000C99097A88422BDAFFE70C98EB
:1015C00040689DF82A1000EB01120901405806906E
:1015D00050689168D2680992089107909DF82F0091
:1015E0009DF82A1088420ED0FFE7089858B1FFE70F
:1015F0009DF818009DF82E10884204D1FFE7F420D2
:101600008DF82B00FFE7FFE79DF82A0001308DF8E9
:101610002A00CDE7FFE79DF92B00002853D1FFE713
:101620000C9840689DF82F1000EB011004909DF875
:101630002E0004990870BDF82C004FF47A714843CD
:10164000049988600499FF204870FFE704990020FE
:10165000C860FFE70498007870B1FFE704988068DD
:1016600050B1FFE70498007800F5E060ADF816008F
:1016700004990120887007E00020ADF81600049955
:10168000886004998870FFE70C994B688869898B9A
:101690009DF82FC06144BDF8162003EB0C1341F2F6
:1016A000893EC0F6000EEC46CCF808E0CCF80430D9
:1016B0000023CCF8003089B240F2FF73FFF71AFB29
:1016C0008DF82B00FFE79DF82B008DF83700FFE722
:1016D0009DF937000EB080BD80B58EB00D900C9195
:1016E0000B920A930120099008900C98002800F0B2
:1016F0008A80FFE70D984069002800F08480FFE7AA
:1017000000208DF81F00FFE79DF81F000D99097A52
:10171000884277DAFFE70B9806900D9840689DF8AD
:101720001F1000EB011005900598807808B9FFE7BD
:1017300062E00598C06848B3FFE7059890F901009A
:10174000B0B9FFE70598807802280DD1FFE70D9822
:1017500000689DF81F106A46116001211C2248F2A2
:10176000301303F081FAFFE705990120887007E044
:101770000599022088700599002048600690FFE7CF
:10178000FFE705990020C860FFE7FFE7059880782C
:1017900002281FD1FFE7069A05994868104448605F
:1017A000059948688968884213D3FFE70D98006857
:1017B0009DF81F106A46116001211B2248F2301368
:1017C00003F052FA0599FF204870059903208870AC
:1017D000FFE7FFE705988078022803D0FFE70020A5
:1017E0000990FFE7059890F90100052803D0FFE76D
:1017F00000200890FFE7FFE79DF81F0001308DF8FB
:101800001F0081E734E00C9820B9FFE70D9840698C
:1018100068B3FFE700208DF81300FFE79DF8130081
:101820000D99097A88421EDAFFE70D9840689DF805
:10183000131000EB011003900399FF204870FFE79D
:1018400003990020C860FFE70398807820B1FFE784
:10185000039901208870FFE7FFE79DF8130001302E
:101860008DF81300DAE7002009900890FFE7FFE702
:101870000D98C068B8B9FFE70998A0B1FFE70D98C7
:1018800000686946002302930B601B22194603F08F
:10189000EBF9029B0D98006869460B601C22194603
:1018A00003F0E2F9FFE709980D99C86008980D99CF
:1018B00008610C980D9948610EB080BD83B001900D
:1018C00000208DF80300019820B9FFE7FF208DF874
:1018D0000B0009E0019900208860486008609DF8CD
:1018E00003008DF80B00FFE79DF90B0003B0704774
:1018F0008CB0DDF84CC0DDF848C0DDF844C0DDF840
:1019000040C0DDF83CC0DDF838C0DDF834C0DDF89B
:1019100030C00B900A918DF82720089300208DF895
:101920001F008DF81E0006900A9A0B990868104453
:101930000860FFE70B9800684CF250318842C0F015
:101940000D81FFE70B98417A012020EA0101059102
:1019500006900B9908684CF25032801A08600B9977
:10196000087901300871C0B20428C0F2D880FFE7BE
:101970000B99002008718DF81E008DF81F000B9840
:10198000407A8007002807D4FFE79DF81F0040F049
:1019900002008DF81F0006E09DF81E0040F00200D6
:1019A0008DF81E00FFE70B99487901304871C0B2ED
:1019B00001460391012808D0FFE7039802280BD0C5
:1019C000FFE7039806280ED011E09DF81F0040F0B5
:1019D00004008DF81F000BE09DF81E0040F004008D
:1019E0008DF81E0004E00B990020487100E0FFE72D
:1019F0000B99887901308871C0B201380146029193
:101A0000072818D80299DFE801F0040B040B16161A
:101A100016129DF81F0040F008008DF81F000BE023
:101A20009DF81E0040F008008DF81E0004E00B99A0
:101A30000020887100E0FFE70B99C8790130C87178
:101A4000C0B201460191012818D0FFE70198022891
:101A50001BD0FFE70198032810D0FFE70198042866
:101A600013D0FFE70198052808D0FFE70198062862
:101A70000BD0FFE701980A280ED011E09DF81F0057
:101A800040F010008DF81F000BE09DF81E0040F0A4
:101A900010008DF81E0004E00B990020C87100E0D2
:101AA000FFE70B99087A01300872C0B20146009135
:101AB000012820D0FFE70098022823D0FFE70098F4
:101AC000032818D0FFE7009804281BD0FFE70098F0
:101AD000052810D0FFE70098062813D0FFE70098EC
:101AE000072808D0FFE7009808280BD0FFE70098E8
:101AF0000C280ED011E09DF81F0040F020008DF85A
:101B00001F000BE09DF81E0040F020008DF81E0025
:101B100004E00B990020087200E0FFE70CE00B984E
:101B2000407A00F07E008DF81F000B98807A00F05C
:101B30007E008DF81E00FFE7059838B1FFE79DF89D
:101B40001F0040F001008DF81F0006E09DF81E0008
:101B500040F001008DF81E00FFE7EBE60698002834
:101B600000F0AB80FFE70C9820B1FFE701208DF873
:101B7000130046E09DF9270038B9FFE79DF81F00E4
:101B800000F001008DF813003AE00E9838B1FFE73D
:101B90009DF81F0000F020008DF813002FE00F9833
:101BA00038B1FFE79DF81F0000F010008DF813001A
:101BB00024E0109838B1FFE79DF81F0000F00800FE
:101BC0008DF8130019E00D9838B1FFE79DF81F005C
:101BD00000F004008DF813000EE0119838B1FFE713
:101BE0009DF81F0000F002008DF8130003E00020B4
:101BF0008DF81300FFE7FFE7FFE7FFE7FFE7FFE7E9
:101C0000FFE7089838B1FFE79DF81E0000F00100DB
:101C10008DF8120032E0129838B1FFE79DF81E00EF
:101C200000F010008DF8120027E09DF9270004282D
:101C300007D1FFE79DF81E0000F004008DF81200A8
:101C40001AE09DF927007F2807D1FFE79DF81E00C5
:101C500000F002008DF812000DE09DF92700052824
:101C600004D1FFE701208DF8120003E000208DF879
:101C70001200FFE7FFE7FFE7FFE7FFE79DF813002C
:101C800038B1FFE79DF81F0040F080008DF81F007D
:101C9000FFE79DF8120038B1FFE79DF81E0040F005
:101CA00080008DF81E00FFE79DF81F000B99487219
:101CB0009DF81E000B998872FFE70CB0704700007A
:101CC00010B58CB00A900991089207930A9820B930
:101CD000FFE7FF208DF82F0022E00A98D0F804C01B
:101CE000C06B0999079A089BEE4640F2E474CEF85F
:101CF00014400824CEF81040CEF80CC040F2E57431
:101D0000CEF808401024CEF80440CEF800C000F011
:101D10001BF88DF81B009DF81B008DF82F00FFE7C6
:101D20009DF92F000CB010BD82B00190019818B938
:101D3000FFE70020009003E00198007C0090FFE79F
:101D40000098C0B202B0704770B58CB09C46964601
:101D50000C46054615981499139A129A119B109ED9
:101D60000A950994CDF820E0CDF81CC0ADF81A30E2
:101D7000ADF81820ADF81610ADF8140000208DF85D
:101D800013000A98D8B1FFE70898C0B1FFE7079899
:101D9000A8B1FFE7109890B1FFE7139878B1FFE77B
:101DA00007980078012805DBFFE70798007880286E
:101DB00009DBFFE707980078FF2804D0FFE7FF2042
:101DC0008DF82F0063E00A987421FEF7D2F90A9982
:101DD000DDF824C0DCF80000DCF80420DCF8083072
:101DE000DCF80CC0C1F80CC08B604A6008600A992E
:101DF000002008740A9981F8340008980A998863C9
:101E000007980A99C863079800780A9981F84000F2
:101E1000FFE70A9900204864FFE71098BDF81A1000
:101E2000BDF818200A9B42F2112EC0F6000EEC46B7
:101E3000CCF808E0CCF8043000230393CCF8003051
:101E400040F2FF73FEF756FF039B8DF813001398C3
:101E50000A99C8661398BDF81610BDF81420EE460E
:101E6000CEF804304FF0080CCEF800C0FEF7FAFFB1
:101E70000A9908670A98006F20B9FFE7FF208DF8DC
:101E80001300FFE79DF813008DF82F00FFE79DF981
:101E90002F000CB070BD000080B58CB00B900020FE
:101EA0000A900B98406C002800F0AE81FFE70020FC
:101EB00007900B99096FC1F80900C1F805000B984C
:101EC00090F848000438014601915A2800F28C81AC
:101ED0000199DFE811F05B0089018901890189011D
:101EE00089018901890189018901890189018901A2
:101EF0006500890193008901ED0089010C018901C8
:101F00008901890189018901890189018901890181
:101F10008901890189018901890189018901890171
:101F20008901890189018901890189018901890161
:101F30008901890189018901890189018901890151
:101F40008901890189018901890189018901890141
:101F5000890189015E00890189018901890189015D
:101F60008901890189018901890189018901890121
:101F70008201890189018901890189018901890118
:101F800089013501450155016501750101200A905E
:101F90002BE10B98016F442048710120079024E148
:101FA0000B9890F84A008DF8270000208DF8260045
:101FB0009DF82700012805DBFFE79DF82700802812
:101FC00005DBFFE79DF82700FF2806D1FFE79DF816
:101FD00027000B99C96B087003E001208DF82600DB
:101FE000FFE70B9991F84800096F48719DF82600AA
:101FF0000B99096F887101200790F6E00B98406DEE
:1020000008B9FFE7F1E00B9890F84A008DF824003A
:102010000B9890F84B008DF8230000208DF82600D7
:102020008DF825009DF8240060BBFFE79DF8230094
:10203000052827D0FFE79DF82300092822DCFFE7C9
:102040009DF823104BF28C70C0F6000030F81100A0
:10205000ADF816000B98426D806DBDF816109047D4
:102060000490049830B1FFE7BDF816000B99896B16
:10207000088006E0FF208DF8260001208DF825005D
:10208000FFE703E001208DF82600FFE70B9991F8A8
:102090004800096F48719DF826000B99096F8871F7
:1020A0009DF825000B99096FC871012007909CE0ED
:1020B0000B98406D08B9FFE797E00B98C06DA8B189
:1020C000FFE70B9890F84B000002ADF80E000B985C
:1020D00090F84A10BDF80E000843ADF80E000B98BA
:1020E000C26D006EBDF80E109047FFE77DE0002046
:1020F0008DF826000B98406E20B9FFE701208DF87F
:10210000260010E00B98826BC16B436E806E0978DD
:10211000128898470290029820B9FFE702208DF8B4
:102120002600FFE7FFE70B9991F84800096F487117
:102130009DF826000B99096F88710120079054E0E3
:102140000B9991F84800096F48710B980068069048
:102150000B98016F0698C1F806000120079044E033
:102160000B9991F84800096F48710B9840680690E8
:102170000B98016F0698C1F806000120079034E023
:102180000B9991F84800096F48710B988068069088
:102190000B98016F0698C1F806000120079024E013
:1021A0000B9991F84800096F48710B98C068069028
:1021B0000B98016F0698C1F806000120079014E003
:1021C0000B9991F84800096F48710B9991F84000FC
:1021D000096F88710120079007E00B98016F4F206D
:1021E00048710120079000E0FFE7079830B1FFE752
:1021F0000B99C86E096FFEF7CFFDFFE7FFE70B995C
:1022000000204864FFE7FFE70A980CB080BD00009B
:1022100092B01190109111980F90109800798DF84C
:102220003B009DF83B00082840F04B81FFE70F98EA
:10223000406C002840F04581FFE700200D90109889
:1022400005300C900C9800788DF82F009DF82F0029
:10225000042836D1FFE70C9840788DF82E009DF8C1
:102260002E000146019120B1FFE70198012822D0FC
:1022700025E00F98007C012814D1FFE70F9890F813
:102280004000FF280ED1FFE70F98C06B0078FF28B1
:1022900008D0FFE79DF82F000F9981F84800012032
:1022A0000D90FFE70F99002008740F990862C8612C
:1022B0008861486104E00F990120087400E0FFE79D
:1022C000F5E00F98007C002840F0E080FFE79DF8E3
:1022D0002F00403801460091112800F2D580009966
:1022E000DFE801F009111921D2D2D2D2D2D2D2D252
:1022F000D2D2D2D2D24B0C98D0F801000A900A98D0
:102300000F994861C1E00C98D0F801000990099834
:102310000F998861B9E00C98D0F8010008900898EE
:102320000F99C861B1E00C98D0F8010007900798A8
:102330000F9908620F994868896988421CD1FFE7A4
:102340000F998868C969884216D1FFE70F99C86854
:10235000096A884210D1FFE70F99086849698842E5
:102360000AD1FFE70F99012008749DF82F100F9AEA
:1023700082F848100D90FFE787E00F98C06B007857
:10238000FF2840F08080FFE70F9890F84000FF287A
:1023900079D1FFE70C9840798DF81B000C98807973
:1023A0008DF81A000C98C0798DF819009DF81B0063
:1023B000202805DBFFE79DF81B0080280AD1FFE7F6
:1023C0009DF81A00032805DCFFE79DF81900042892
:1023D00001DBFFE759E00C98D0F801000590059863
:1023E0000490002003909DF81B0080280CD1FFE78B
:1023F000012003900F99002081F834000F990863A1
:10240000C8628862486232E00F9890F834009DF804
:102410001A1088422AD1FFE79DF81B104FF0FF30B9
:10242000884002900F989DF81A1050F82100029AE7
:10243000104004991140884217D1FFE70120039012
:102440009DF819000F9981F834009DF81B0058B9C8
:10245000FFE79DF819009DF81A10884204DAFFE79B
:102460000F9901200874FFE7FFE7FFE7FFE70398F4
:1024700040B1FFE79DF82F000F9981F84800012037
:102480000D90FFE7FFE700E0FFE70FE00F990C9AE0
:1024900010685268C1F84D20C1F849009DF82F001E
:1024A0000F9981F8480001200D90FFE7FFE70D9894
:1024B00030B1FFE7FFE70F9901204864FFE7FFE72E
:1024C000FFE712B07047000082B00190019818B980
:1024D000FFE70020009004E0019890F900000090D0
:1024E000FFE7009840B202B0704700002DE9F041CC
:1024F0008EB01C4615460E4607461C981B981A9926
:10250000199A189A179BDDF858C0DDF854C0DDF809
:1025100050E00C970B960A958DF82740ADF824E013
:10252000ADF822C0ADF82030ADF81E20ADF81C107B
:10253000ADF81A0000208DF819000C9860B1FFE783
:102540000B9848B1FFE70A9830B1FFE7169818B129
:10255000FFE7199820B9FFE7FF208DF83700C6E0A4
:102560000C982C21FDF705FE0C99002004900870B2
:102570000C9948709DF827100C9AD170BDF8241062
:102580000C9A91800A990C9A1162BDF822104FF4AE
:102590007A7251430C9AD1600C99CA684CF27B1143
:1025A000C0F6000107F072FC04990B980DF11602B9
:1025B000012305F025FF8DF815009DF9150068B180
:1025C000FFE71C9830B1FFE70B9805F049FD1C9917
:1025D0000860FFE7F4208DF8370088E0BDF81600AA
:1025E0004FF47A7148430C9988600C9882684CF2D9
:1025F0009611C0F60001002007F048FC0C9800611D
:102600000C9948F26D60C0F6000048610C9948F6DC
:102610001570C0F6000088610B980C99103105F018
:1026200017FC8DF815009DF9150068B1FFE71C989F
:1026300030B1FFE70B9805F013FD1C990860FFE728
:10264000F4208DF8370052E00C988168C068884209
:1026500004D9FFE70C998868C860FFE71698BDF8B1
:102660002010BDF81E200C9B42F6151EC0F6000E71
:10267000EC46CCF808E0CCF804300023CCF800306D
:1026800040F2FF73FEF736FB8DF819009DF9190033
:1026900060B1FFE74CF2B311C0F60001002007F073
:1026A000F5FB9DF819008DF8370020E019980C997A
:1026B00048621998BDF81C10BDF81A20EE46002398
:1026C000CEF804304FF0010CCEF800C0FEF7CAFB84
:1026D0000C9988620C98806A20B9FFE7FF208DF87A
:1026E000370004E09DF819008DF83700FFE79DF9E9
:1026F00037000EB0BDE8F08180B58EB00D900C9122
:102700000B920A930D9800788DF8270000208DF821
:1027100026009DF92700B0FA80F0400908900D9836
:10272000C0680B99884206D9FFE70D98C0680B99DD
:10273000401A059002E000200590FFE705980D99EA
:10274000C860089880B9FFE70D98806848B3FFE734
:102750000D98C06840B1FFE79DF927000D9991F9E8
:10276000011088421DD0FFE79DF827000D99896A66
:1027700048710D99486A896AFEF70EFB9DF927009A
:1027800050B9FFE70D988088C1057F20002948BF18
:1027900005208DF8270003E00D998868C860FFE7E1
:1027A000FFE79DF827000D9948700D98807880B359
:1027B000FFE70D98807801460491012810D0FFE7CB
:1027C0000498022810D0FFE70498802810D0FFE773
:1027D0000498812810D0FFE70498822810D013E0D5
:1027E00005208DF8270010E004208DF827000CE06C
:1027F0007F208DF8270008E002208DF8260004E0F5
:1028000001208DF8260000E0FFE70D990020887078
:10281000FFE70D9881880020C9040029039021D585
:10282000FFE70D98006A122102F0AAFB0146012081
:102830000290A1B9FFE70D98006A1B2102F0A0FBEE
:1028400001460120029051B9FFE70D98006A1C2152
:1028500002F096FB002818BF01200290FFE70298C3
:102860000390FFE7039800F0010007900D9881881E
:1028700000208904002901900CD5FFE70D98006A1B
:1028800002F0CCFA0D9989880840002818BF012071
:102890000190FFE7019800F0010006909DF92700E4
:1028A000052810D1FFE7079818B9FFE7069850B13F
:1028B000FFE70D98808841047F20002948BF04204D
:1028C0008DF8270015E00D988088000400280FD5AA
:1028D000FFE79DF927007F280AD1FFE7079838B95D
:1028E000FFE7069820B9FFE705208DF82700FFE7EE
:1028F000FFE79DF827000D9908700C9828B1FFE7B5
:102900009DF827000C990870FFE79DF826000EB08F
:1029100080BD000086B005900491049800798DF880
:102920000F00049805300290029800788DF8070097
:10293000029840788DF80600059800909DF80F00E9
:10294000022810D1FFE79DF8060038B1FFE79DF897
:1029500006000099C978884205D1FFE79DF8070075
:1029600000998870FFE706B07047000087B00690B6
:1029700005910698049004980390059800798DF8C5
:102980000B00059805300190049890F860018DF8CF
:10299000030003988068002859D0FFE79DF80B00DA
:1029A0000399097B884248DBFFE79DF80B000399F8
:1029B000097B88420AD1FFE79DF80300012804D172
:1029C000FFE70B208DF80300FFE708E09DF8030008
:1029D00020B9FFE70D208DF80300FFE7FFE7002097
:1029E0008DF802000498D0F8680178B1FFE70498E8
:1029F000D0F8640150B1FFE70498D0F86401C068D2
:102A000020B1FFE701208DF80200FFE704989DF850
:102A1000021000EBC101019A10685268C1F85421FC
:102A2000C1F85001FFE704989DF8021000EB810106
:102A30000120C1F84801FFE708E09DF8030020B934
:102A4000FFE70C208DF80300FFE7FFE7FFE79DF8A5
:102A50000300049981F8600107B0704780B594B015
:102A60008C4686461B981A981999189917991699A1
:102A7000CDF848E0CDF844C010920F93ADF83A106D
:102A8000ADF8380012980D90129878B1FFE71198C0
:102A900060B1FFE7109848B1FFE7179830B1FFE742
:102AA000189818B1FFE7199820B9FFE7FF208DF8B3
:102AB0004F0045E112984FF4BA71FDF75AFB109898
:102AC0000D99086019980D99486000200B900D9899
:102AD0001199189A1B9BEC460DF12C0ECCF804E0D2
:102AE000CCF80030012306F093FF8DF833009DF9F8
:102AF000330028B1FFE79DF833008DF84F001FE148
:102B000000200A9017980AAA0123194605F0C8FC6C
:102B10008DF832009DF9320078B1FFE71B9840B183
:102B2000FFE7179805F0ACFA000201301B99086026
:102B3000FFE7F4208DF84F0002E10A98C043C00F70
:102B400009900A986FF3DF20ADF82200099888B148
:102B5000FFE70D98407B20B1FFE7BDF8220048B9A0
:102B6000FFE7002009900B9818B9FFE701200B90B0
:102B7000FFE7FFE70B98C0B1FFE70D9800680690EC
:102B80000B98012803D0FFE70B98059002E00A9804
:102B90000590FFE7069805996A46116001211A22FF
:102BA0004FF4024302F060F8FFE7099820B9FFE70D
:102BB0000020ADF82200FFE7BDF8220070B1FFE76A
:102BC000BDF82200BDF83A1021F07F01884205D1FE
:102BD000FFE7BDF83A00ADF82200FFE71998BDF80D
:102BE0003810BDF82220129B42F66D1EC0F6000E72
:102BF000EC46CCF808E0CCF804300023CCF80030E8
:102C000040F2FF73FEF776F88DF833009DF933003C
:102C100028B1FFE79DF833008DF84F0090E0099848
:102C20000D998860FE208DF82100179802210DF182
:102C30002102012305F084FC8DF832009DF9320059
:102C400078B1FFE71B9840B1FFE7179805F018FA35
:102C5000000202301B990860FFE7F4208DF84F0056
:102C60006EE00F981299C1F864019DF821100020C0
:102C70000490F1290146B8BF0121129AC2F86811E7
:102C8000ADF81E00179805210DF11E0201230393D4
:102C900005F0CAFB014603988DF83210BDF81E10EE
:102CA0004FF47A725143129AC2F86C110D99C1F81F
:102CB000180111980D99C1F81C01BDF838000D9943
:102CC000A1F82001BDF83A000D99A1F82201BDF844
:102CD00022000D99A1F8240112980D99C1F828013C
:102CE0000D9948F6AD00C0F60000C1F82C010D9911
:102CF00049F2FD20C0F60000C1F8300112980D998C
:102D0000C1F838010D9948F26D60C0F60000C1F8B5
:102D10003C010D9949F67D00C0F60000C1F8400164
:102D200017980D9901F5947105F0A8F818980D9968
:102D300001F59C7105F0A2F804988DF84F00FFE7AB
:102D40009DF94F0014B080BD80B594B0DDF858C037
:102D5000139012911192109313980F900F9880680E
:102D6000002800F01B81FFE71098002800F0168172
:102D7000FFE7169838B9FFE71398D0F868010028E4
:102D800040F00C81FFE7139890F860010B2826DBD8
:102D9000FFE7139890F860010B3818BF01200E90E0
:102DA000139890F8601148F220200C2908BF48F2CF
:102DB0001020ADF836000F9A10680E99BDF8363025
:102DC000127BEC46CCF80020042201F04DFF0E9857
:102DD000002818BF0120139981F86001FFE7002047
:102DE0008DF835001398D0F8680178B1FFE7139893
:102DF000D0F8640150B1FFE71398D0F86401C068BF
:102E000020B9FFE701208DF83500FFE700200C9086
:102E1000FFE713989DF8351000EB8100D0F84801CA
:102E200000286AD0FFE701200C9013989DF8351018
:102E300000EBC10000F5A8700B90FFE713989DF818
:102E4000351000EB81010020C1F84801FFE70020A8
:102E50008DF82B00FFE79DF82B000F99497B8842E6
:102E60004ADAFFE70F989DF82B10C1EBC10100EB88
:102E700081001030099009980C300890089800687B
:102E80008DF81F000998806806900698092803D3DA
:102E9000FFE708200690FFE706989DF81F1088427C
:102EA0000DD9FFE70020059004900B999DF81F2095
:102EB00004A80190FDF736F90198039002E00B9801
:102EC0000390FFE70899002008600998D0F818C01F
:102ED0000399069A02ABE0479DF81F000899086025
:102EE0009DF81F100B9808440B90FFE79DF82B00EE
:102EF00001308DF82B00AEE78BE71398D0F86C010A
:102F000000284AD0FFE70C98D0B1FFE71398D0F81B
:102F10006C11D0F8700188420DD9FFE70F98006856
:102F20001399D1F870116A461160172200231946CF
:102F300001F09AFEFFE713990120C1F870012BE020
:102F40001398D0F8700130B3FFE71398D0F86C11E4
:102F5000D0F8700188421ED2FFE7129A1399D1F877
:102F600070011044C1F870011398D0F86C11D0F8BA
:102F7000700188420ED9FFE70F9800681399D1F8C5
:102F800070116A4611600121172248F2502301F0A6
:102F90006BFEFFE7FFE7FFE7FFE718E00F988068A9
:102FA00018B1FFE7109888B9FFE7FFE713990020F1
:102FB000C1F84801FFE7FFE713990020C1F84C0171
:102FC000FFE713990020C1F87001FFE7FFE714B095
:102FD00080BD000080B586B00590049105980390EF
:102FE000049800798DF80B000498053001909DF845
:102FF0000B0008281DD1FFE701980078802804D134
:10300000FFE703990020087512E00398806B08B170
:10301000FFE70CE003983C3001999DF80B20FDF789
:1030200081F8FFE7039901208863FFE7FFE7FFE7E7
:10303000FFE706B080BD0000B0B592B094468E4662
:1030400004461B981A9819991899179A169A109469
:10305000CDF83CE0CDF838C08DF83730ADF83420ED
:10306000ADF83210ADF83000109848B1FFE70F9876
:1030700030B1FFE7179818B1FFE7199820B9FFE7BB
:10308000FF208DF847002EE10F98109988609DF879
:10309000370010990873BDF834004FF47A71484333
:1030A000109948671099002008750E98F0B9FFE74D
:1030B0009DF83700012805DBFFE79DF837008028E1
:1030C00004DBFFE7FF208DF847000CE19DF8370097
:1030D00000F5C060ADF82E009DF8370000F5B06037
:1030E000ADF82C00109901200861CEE00E9804F094
:1030F000D7FFADF82A00BDF82A00B0F5905F2CD1BB
:10310000FFE79DF83700012805DBFFE79DF8370052
:10311000802804DBFFE7FF208DF84700E3E09DF8FF
:10312000370000F5C060ADF82E009DF8370000F5BF
:10313000B060ADF82C0010980123069303610E983F
:10314000BDF82E20194605F02BFC069B0E98BDF805
:103150002C20022105F024FC96E0BDF82A00B0F5F1
:10316000905F40F38C80FFE7BDF82A00B0F5945FD4
:1031700080F28580FFE70E9800210DF129020123DE
:10318000059305F0F1F9059B8DF81F000E9809AA2B
:10319000194605F099F9059B8DF81E000E9802213D
:1031A00008AA05F091F98DF81D009DF91F0090B94E
:1031B000FFE79DF82900022805D0FFE79DF82900C8
:1031C000032808D1FFE79DF91E0020B9FFE79DF90C
:1031D0001D0060B1FFE71B9828B1FFE7BDF82A008A
:1031E0001B990860FFE7F4208DF847007BE09DF80D
:1031F00027000006002805D4FFE709986FF3DF20B9
:10320000049002E000200490FFE70498ADF82E003F
:103210009DF823000006002805D4FFE708986FF307
:10322000DF20039002E000200390FFE70398ADF851
:103230002C0010984065109948F26D60C0F60000AF
:103240008865109949F25D00C0F60000C8650E98C7
:103250001099543104F028FE8DF81C009DF91C00D3
:1032600060B1FFE71B9828B1FFE7BDF82A001B9962
:103270000860FFE7F4208DF8470034E003E0FF200A
:103280008DF847002FE0FFE7FFE7FFE710990020E8
:103290008863FFE7179810994864BDF832001099C9
:1032A000A1F84800BDF830001099A1F84A00109923
:1032B0000020C86410990865199810990860109842
:1032C0001799BDF83220BDF83030BDF82EC0BDF8DA
:1032D0002C40EE46CEF80440CEF800C000F008F8CE
:1032E0008DF84700FFE79DF9470012B0B0BD000020
:1032F00080B58CB0DDF83CC0DDF838C00A9009918B
:10330000ADF82220ADF820300E980A99C96C884299
:103310000AD1FFE70F980A99096D884204D1FFE7A7
:1033200000208DF82F0074E00E980A99C8640F9859
:103330000A9908659DF83B000006002804D4FFE7C1
:10334000BDF83800059002E000200590FFE70598E1
:10335000ADF81E009DF83F000006002804D4FFE7EA
:10336000BDF83C00049002E000200490FFE70498C0
:10337000ADF81C00BDF81E0040B1FFE7BDF81C0011
:1033800020B1FFE70A990120086107E00020ADF8AD
:103390001E00ADF81C000A990861FFE70998BDF806
:1033A0002210BDF81E200A9B42F6D57EC0F6000E04
:1033B000EC46CCF808E0CCF8043000230393CCF8BA
:1033C000003040F2FF73FDF795FC039B8DF81B0066
:1033D0000A980068BDF82010BDF81C20EE46CEF813
:1033E00004304FF0080CCEF800C0FDF73BFD0A9901
:1033F00048600A98406838B9FFE7FF208DF81B0045
:103400000A9900200861FFE79DF81B008DF82F0046
:10341000FFE79DF92F000CB080BD000080B5A2B081
:103420001D901C911B921A931D9828B9FFE7FE204E
:103430008DF87B0000F0ACBC01208DF86700002007
:1034400018901D98806B002818BF012017901D98B8
:10345000006958B1FFE71D98007D38B9FFE717985C
:1034600020B9FFE700208DF86700CAE21C9820B160
:10347000FFE71D98006960B9FFE71D9900200875F6
:10348000FFE71D9900208863FFE700208DF86700A3
:10349000B6E21798002800F0B282FFE71D98007D81
:1034A000002840F0D580FFE7002016901D9890F886
:1034B0003C0000F0F000202804D1FFE71D99112006
:1034C000087514E01D9890F83C00402806D1FFE7ED
:1034D000012016901D992120087507E00120C0F2F7
:1034E000045018901D9901200875FFE7FFE7189810
:1034F00000285DD1FFE71D9991F83D0091F83E202D
:1035000040EA022088861D9991F83F0081F8360034
:103510001D998868898E04F009FD1D9A92F836106D
:103520001832002304F054FE8DF857009DF957001F
:1035300048B1FFE79DF9570004F028FE18901D9947
:103540000120087533E01D9890F82800800740B9E5
:10355000FFE70020C0F2016018901D990120087556
:1035600024E0169870B1FFE71D9890F82800C00776
:1035700040B9FFE70120C0F2016018901D990120B9
:10358000087512E0169878B9FFE71D9890F82800A2
:103590008007002808D4FFE70220C0F201601890DD
:1035A0001D9901200875FFE7FFE7FFE7FFE7FFE749
:1035B000169800284BD0FFE71898002847D1FFE75E
:1035C0001D980023C0F8A0301D98C0F8A4301D98A5
:1035D00083661D9803671D9818A9072207F068FEE7
:1035E000A0B3FFE71D98006FE8B1FFE71D99086AD7
:1035F00048661D98406E28B9FFE71D99D1F8A000D4
:1036000048660FE01D99486ED1F8A010884208D096
:10361000FFE74720C0F2046018901D99012008754B
:10362000FFE7FFE711E01D9890F82800000600284A
:1036300004D4FFE71D98006A039002E00020039085
:10364000FFE703981D994866FFE7FFE7FFE7FFE7FD
:103650001D98007D002800F0C881FFE71D98007DBF
:10366000012800F0C281FFE71D98007D1138014656
:103670000291122800F2B0810299DFE811F01300E4
:10368000AD010801AD01AD01AD01AD01AD01AD016F
:10369000AD01AD01AD01AD01AD01AD01AD017D01EA
:1036A000AD0181011D9890F83C008007002840F191
:1036B000AA80FFE71D98006A1490042013901D98BB
:1036C00090F83C00C00748B1FFE71D9890F83C0017
:1036D000C0F381011398401A13900AE0149838B18E
:1036E000FFE71498032803D8FFE714981390FFE727
:1036F000FFE70020ADF8480011901D9800F140014F
:10370000139A11A8FCF70EFD1D9890F828000006EA
:10371000002817D5FFE7149828B1FFE713981499EC
:1037200088420FD2FFE714981399401A109010990D
:10373000012918BF022113980844139013981D996A
:1037400008621DE0149820B9FFE713981D990862DC
:1037500015E013981499884210D0FFE71399149A32
:103760001320C0F20760914284BF1220C0F20760AC
:1037700018901D994FF00100087535E1FFE7FFE74C
:1037800000200F901D98183004F054FF0E900E98F2
:1037900070B1FFE7FFE7EFF310801F901F981D99AE
:1037A00009684863EFF3108072B62090FFE7FFE7E7
:1037B0001D9901F11800D1F830C0139A11A90FAB6F
:1037C000E0478DF837000E9840B1FFE71D9800687C
:1037D000406B2190219880F31088FFE79DF9370016
:1037E00048B1FFE79DF9370004F0D0FC18901D990F
:1037F00001200875F8E01D99122008751D99012017
:103800000867FFE742E01D9890F83C00C00790B3BE
:10381000FFE71D98006A0B901D98006C0C900C98A7
:103820001D9948660B9828B3FFE71D98406E0B99C9
:10383000884208D9FFE71220C0F2076018901D994E
:1038400001200875D0E01D98406E0B9988420FD278
:10385000FFE71D9890F828000006002808D4FFE72D
:103860001320C0F2076018901D9901200875BBE075
:10387000FFE7FFE703E01D9900204866FFE71D9979
:10388000122008751D9900200867FFE7ACE01D981D
:1038900090F83C0010F0E00F65D1FFE71D9991F81A
:1038A0003C0000F0010008671D9890F83C0000F013
:1038B00010008DF82B009DF82B001D9991F86C10CD
:1038C000884208D0FFE70020C0F2035018901D99ED
:1038D0000120087588E01D9890F83C10072020EA28
:1038E000510009901D99D1F8A00008447C303D3169
:1038F000099AFCF717FC099A1D99D1F8A000104409
:10390000C1F8A000099A1D99886E104488661D9818
:10391000006A70B1FFE71D98016A806E884208D97D
:10392000FFE71220C0F2076018901D99012008756A
:103930005AE01D98006F40B9FFE71D98D0F8A0002D
:10394000C0F1200008280AD8FFE71D9818A9002315
:103950001A4607F07DFD08B9FFE745E0FFE71D992E
:103960001420087507E00120C0F2045018901D993A
:1039700001200875FFE737E01D992220087533E024
:103980001D9890F83C0000F0EF0060281BD1FFE785
:103990001D9890F83C0000F010008DF823009DF871
:1039A00023001D9991F86C10884208D0FFE7002091
:1039B000C0F2035018901D990120087514E01D995C
:1039C0002420087507E00120C0F2045018901D99CA
:1039D00001200875FFE707E00120C0F204501890AD
:1039E0001D9901200875FFE7FFE71D9900208867F2
:1039F0001B90FFE71D9900208863FFE7FFE7FFE7C3
:103A0000FFE79DF96700012824D1FFE71D98416F6A
:103A1000806F884206D2FFE71B9A1D99886F104479
:103A20008867FFE71D98416F806F884208D3FFE7E2
:103A30000020C0F2045018901D9901200875FFE77E
:103A40001D984068006920B1FFE704208DF86700E9
:103A5000FFE7FFE79DF96700012840F06381FFE77A
:103A60001D9841680020C1F80900C1F805001D98A3
:103A7000007D123801460191122800F2518101990E
:103A8000DFE811F013004E0149004E014E014E01D6
:103A90004E014E014E014E014E014E014E014E01AE
:103AA0004E014E0170004E01C6001D984168602015
:103AB00048711D9991F83400496888711D9991F8F1
:103AC00035004968C8711D9991F836004968087237
:103AD0001D99002088671D9908684968FDF75CF901
:103AE0001D98006F30B1FFE71D99002008758DF813
:103AF00067000FE01D99002081F86C001D99886611
:103B00001D99C1F8A0001D99C1F8A4001D991320AA
:103B10000875FFE705E11D9991F86C0040F0200061
:103B2000496848711D9991F86C00B0FA80F040091D
:103B3000000181F86C001D99002088671D990868B4
:103B40004968FDF729F91D98006F30B1FFE71D990D
:103B5000002008758DF8670003E01D991320087593
:103B6000FFE7DEE01D98406ED8B1FFE71D98406E7C
:103B7000042816D8FFE71D984168406EC0F1040282
:103B8000432040EA820048711D9948684A6E093016
:103B90007C31FCF7C7FA1D99002008758DF8670085
:103BA00021E01D98406E78B1FFE71D98406E0790A8
:103BB000079806901D984168412048711D984168FA
:103BC0000698C1F8090004E01D984168402048713A
:103BD000FFE71D99002081F86C001D9988671D99E9
:103BE00023200875FFE71D9991F834004968887112
:103BF0001D9991F835004968C8711D9991F83600F2
:103C0000496808721D9908684968FDF7C5F888E099
:103C10001D9818A90722002307F04AFB08B9FFE7FF
:103C20007FE01D9991F86C00496848711D9991F8E1
:103C30006C00B0FA80F04009000181F86C001D9919
:103C4000D1F8A000D1F8A410401A059005980728D3
:103C500008D3FFE71D98006FA8B1FFE70598072874
:103C600011D1FFE70598C0F107021D984168487916
:103C700040EA420040F0010048711D99002008759B
:103C80008DF8670008E01D99002088671D992320A2
:103C9000087507200590FFE71D994868D1F8A42012
:103CA000063011447C31059AFCF73CFA059A1D99BF
:103CB000D1F8A4001044C1F8A400059A1D99886E9B
:103CC000104488661D98406E20B3FFE71D98416E32
:103CD000806E884208D9FFE71220C0F20760189072
:103CE0001D99012008751CE09DF9670080B9FFE768
:103CF0001D98416E806E88420AD2FFE71320C0F201
:103D00000760189001208DF867001D99087508E07C
:103D1000FFE7FFE71D9908684968FDF73DF800E0F7
:103D2000FFE7FFE79DF9670001282CD1FFE71D9809
:103D3000007D012826D1FFE7189804901D9841685E
:103D4000802048711D9991F83400496888711D9947
:103D500091F835004968C8711D9991F83600496895
:103D600008721D9841680498C1F809001D990868F7
:103D70004968FDF711F81D9900200875F6208DF8A7
:103D80006700FFE7FFE79DF867008DF87B00FFE71E
:103D90009DF97B0022B080BD10B58CB08C46864664
:103DA0001498139812991199109C0F9C0E9CCDF8A1
:103DB00028E0CDF824C008920793ADF81A10ADF8AA
:103DC00018000A9878B1FFE7099860B1FFE70898F2
:103DD00048B1FFE7079830B1FFE7129818B1FFE745
:103DE000109820B9FFE7FF208DF82F0014E10A9802
:103DF0006021FCF7BEF9802004900898002104AAF5
:103E0000012304F075FB8DF817009DF9170068B1C8
:103E1000FFE7149830B1FFE7089804F051F91499BE
:103E20000860FFE7F4208DF82F00F5E00A98406362
:103E30000A9948F26D60C0F6000088630A9948F656
:103E40009130C0F60000C86308980A99343104F034
:103E500041F8079804220023194604F051F90A9901
:103E6000C8610A98C06968B9FFE7149830B1FFE7E4
:103E7000079804F025F914990860FFE7F4208DF8FD
:103E80002F00C9E00E9804220023194604F038F9E7
:103E90000A9908620E9888B1FFE70A98006A68B923
:103EA000FFE7149830B1FFE70E9804F009F9149970
:103EB0000860FFE7F4208DF82F00ADE000208DF8BA
:103EC0000F000F98002841D0FFE70F9800210DF157
:103ED0000F02012304F05CFB8DF817009DF9170019
:103EE00068B1FFE7149830B1FFE70F9804F0E8F8E5
:103EF00014990860FFE7F4208DF82F008CE09DF8FE
:103F00000F00012804D1FFE702208DF80F0009E01F
:103F10009DF80F00F12804DBFFE7F0208DF80F007B
:103F2000FFE7FFE70A9800650A9948F26D60C0F65E
:103F3000000048650A9948F68170C0F6000088655F
:103F40000F980A99503103F0C5FFFFE79DF80F0065
:103F50000A99487409980A9908600498C0F3807017
:103F60000A99486204986FF3DF200A99A1F8440087
:103F700010980A99C862BDF81A000A990886129822
:103F80000A998864BDF818000A99A1F84C001098A5
:103F9000BDF81A10049A6FF3DF220A9B44F2D11E77
:103FA000C0F6000EEC46CCF808E0CCF80430002354
:103FB000CCF8003040F2FF73FCF79CFE8DF80E0049
:103FC0009DF90E0028B1FFE79DF80E008DF82F0037
:103FD00022E01298BDF81810049A6FF3DF229DF8C2
:103FE0000FC0BCF1000F18BF4FF0010CEE460023CC
:103FF000CEF80430CEF800C0FCF734FF0A9988628E
:104000000A98806A20B9FFE7FF208DF82F0003E0AF
:1040100000208DF82F00FFE79DF92F000CB010BD98
:1040200080B58AB0099008910792069300208DF818
:1040300017000898002800F0A180FFE70998806920
:10404000079908440490049809998969884204D919
:10405000FFE7049809998861FFE70998406860B113
:10406000FFE709990020886101208DF81700FFE71C
:10407000099900204860FFE7FFE70998C06928B167
:10408000FFE70998C0690068019002E000200190F4
:10409000FFE7019803900398E0B3FFE70998406AAF
:1040A00070B1FFE7099880690399884207D3FFE759
:1040B00001208DF81700099800F0D0F8FFE728E0FC
:1040C0000998007C012823D1FFE7039800EB5000FA
:1040D000029002980399884204D2FFE74FF0FF3024
:1040E0000290FFE709988069029988420FD9FFE79B
:1040F0000999086889696A461160012118224FF4FC
:10410000014300F0B1FD099902200874FFE7FFE7C1
:10411000FFE7FFE70998006AC0B1FFE70998006A66
:10412000006898B1FFE709998869096A09688842B7
:104130000CD9FFE70998406920B9FFE702208DF804
:104140001700FFE709990120486103E00999002061
:104150004861FFE70998007A78B1FFE70999086894
:10416000097A6A4611600121192248F2402300F0C1
:104170007BFD099900200872FFE70CE0FFE7099931
:1041800000204860FFE709990020087209998874A7
:1041900009998861FFE79DF81700012813D1FFE70F
:1041A0000998007C02280AD1FFE70998006869464F
:1041B00000230B601822194600F056FDFFE709990D
:1041C00001200874FFE79DF817000AB080BD0000C9
:1041D00086B00590049105980390049800798DF8B5
:1041E0000B00002001900398407C78B9FFE79DF810
:1041F0000B0018B9FFE70120019006E09DF80B00C5
:1042000040F0400003990872FFE716E09DF80B00AC
:1042100001280AD1FFE70498053000900098007843
:10422000039988740120019006E09DF80B0040F08E
:10423000800003990872FFE7FFE7019860B1FFE78C
:104240000399C868B0FA80F04009C860FFE7039995
:1042500001204860FFE7FFE706B0704780B582B0F5
:1042600001900199887C01308874C0B20199497C21
:10427000884204DDFFE7019901208874FFE7019976
:10428000002088610199C868B0FA80F04009C860D0
:104290000199887C896A48710198816A806CFCF771
:1042A0007BFD02B080BD000080B58CB0DDF838C069
:1042B0000A9009910892ADF81E300A9830B1FFE7D4
:1042C000099818B1FFE7089820B9FFE7FF208DF89B
:1042D0002F006CE00A982C21FBF74BFF0998002176
:1042E00006AA012304F018F98DF817009DF91700AC
:1042F00068B1FFE70E9830B1FFE7099803F0F0FED0
:104300000E990860FFE7F4208DF82F004FE00A981F
:10431000C0610A9948F26D60C0F6000008620A990F
:1043200048F66550C0F60000486209980A991C31A9
:1043300003F0E6FD06986FF3DF20ADF81400069851
:10434000C00F0A9908610698C0F380700A99486105
:10435000FFE70A9900208861FFE70A98006910B317
:10436000FFE70898BDF81E10BDF814200A9B44F220
:10437000A54EC0F6000EEC46CCF808E0CCF80430B0
:104380000023CCF8003040F2FF73FCF7B3FC8DF84B
:1043900013009DF9130028B1FFE79DF813008DF875
:1043A0002F0004E0FFE700208DF82F00FFE79DF9C4
:1043B0002F000CB080BD000080B588B0079006913A
:1043C000059200200490069838B3FFE7079800692B
:1043D00018B3FFE707988069F0B1FFE7079800F08E
:1043E00071FD03900798043000F042FDADF80A001B
:1043F000039820F0704007998860BDF80A0007997B
:10440000888107990020C88101200490FFE707995F
:1044100000208861FFE7FFE705E0FFE7079900203C
:104420008861FFE7FFE7002001900498B8BBFFE731
:104430000598A0B3FFE705980799C989084400903B
:10444000009944F6D350C1F26200A1FB0021890912
:104450000191009AA2FB001080094FF47A7100FBD1
:1044600011200799C881019A0799886810448860CB
:104470000798806845F60041C0F2265188420DD366
:10448000FFE7079988684AF20042CFF6D922104424
:1044900088600799888901308881FFE7FFE70498E1
:1044A00008B080BD85B004900391049802900398F1
:1044B00000798DF807000398053000909DF80700FB
:1044C00006280CD1FFE70299009882888A8000684C
:1044D0000860FFE7029901208861FFE7FFE705B068
:1044E0007047000010B594B08C4686461B981A9809
:1044F0001999189917991699CDF848E0CDF844C044
:1045000010920F93ADF83A10ADF8380012980D9054
:10451000129878B1FFE7119860B1FFE7109848B1A1
:10452000FFE7179830B1FFE7189818B1FFE719981F
:1045300020B9FFE7FF208DF84F0078E112984FF483
:10454000B671FBF716FE10980D99086019980D9931
:10455000486000230B930D981199189ADDF86CC0F0
:10456000EE460BACCEF80440CEF800C005F050FA91
:104570008DF82B009DF92B0028B1FFE79DF82B004B
:104580008DF84F0053E1FE208DF82A001798022184
:104590000DF12A02012303F0D3FF8DF833009DF9BA
:1045A000330078B1FFE71B9840B1FFE7179803F09D
:1045B00067FD000202301B990860FFE7F4208DF8C8
:1045C0004F0034E19DF82A00FD2809DCFFE79DF843
:1045D0002A00F12804DBFFE7FE208DF82A00FFE720
:1045E0009DF82A00129981F84C0112980123C0F815
:1045F000503100200990179809AA194603F050FF7E
:104600008DF833009DF9330078B1FFE71B9840B176
:10461000FFE7179803F034FD000201301B99086092
:10462000FFE7F4208DF84F0001E10998C043C00F67
:10463000089009986FF3DF20ADF81E00089888B144
:10464000FFE70D98407B20B1FFE7BDF81E0048B999
:10465000FFE7002008900B9818B9FFE701200B90A6
:10466000FFE7FFE70B98C0B1FFE70D9800680590E2
:104670000B98012803D0FFE70B98049002E00998FB
:104680000490FFE7059804996A46116001211A22F7
:104690004FF4024300F0E8FAFFE7089820B9FFE77B
:1046A0000020ADF81E00FFE7BDF81E0070B1FFE767
:1046B000BDF81E00BDF83A1021F07F01884205D1F7
:1046C000FFE7BDF83A00ADF81E00FFE71998BDF806
:1046D0003810BDF81E200D9B93F80CC0129B93F868
:1046E0004CE10023BEF1F10F1C46B8BF0124EE4699
:1046F000CEF80440CEF800C0FCF7B4FB1299C1F824
:1047000048011298D0F8480120B9FFE7FF208DF842
:104710004F008CE008980D99886000200390ADF858
:104720001C00ADF81A001798032107AA0123029371
:1047300003F07AFE029B8DF83300179805210DF1E6
:104740001A0203F071FE029B014603988DF83310A4
:10475000BDF81C1064225143129AC2F85C11BDF8D6
:104760001A104FF47A725143129AC2F860111299DA
:1047700081F858011798129901F5AC72062103F0DF
:10478000DFFE014603988DF833100F99129AC2F894
:104790005411129AFF2182F859110D99C1F818018C
:1047A00011980D99C1F81C01BDF838000D99A1F8B8
:1047B0002001BDF83A000D99A1F82201BDF81E00B4
:1047C0000D99A1F8240112980D99C1F828010D99AD
:1047D00048F6AD00C0F60000C1F82C010D9949F271
:1047E0009D50C0F60000C1F8300112980D99C1F833
:1047F00038010D9948F26D60C0F60000C1F83C0127
:104800000D9949F67D00C0F60000C1F840011798E7
:104810000D9901F5947103F031FB18980D9901F58C
:104820009C7103F02BFB03988DF84F00FFE79DF977
:104830004F0014B010BD000080B58AB0DDF830C064
:104840000990089107920693099805900598806849
:10485000002800F0FE80FFE70698002800F0F980AD
:10486000FFE7099890F84C0130B1FFE7099890F8FC
:104870004C01FE285ADBFFE70998D0F8600100B32D
:10488000FFE70998D0F868010899884207D9FFE73F
:104890000998D0F868010899401A029002E00020B7
:1048A0000290FFE702980999C1F868010998D0F8C9
:1048B000680128B9FFE709990120C1F85001FFE715
:1048C000FFE70998D0F8500178BBFFE700208DF88A
:1048D0001300FFE79DF813000599497B884223DA0E
:1048E000FFE705989DF8131000EB8100D0F8F00069
:1048F0000390039888B1FFE70398007805999DF825
:104900001320114491F81011084205D1FFE70999CD
:104910000120C1F8500107E0FFE7FFE79DF8130011
:1049200001308DF81300D5E7FFE7FFE7099890F80D
:104930004C01FE2824DBFFE70998D0F864010899B0
:10494000884207D9FFE70998D0F864010899401A0E
:10495000019002E000200190FFE701980999C1F859
:1049600064010998D0F8500148B1FFE70998D0F8E0
:10497000640120B9FFE7099800F07EF8FFE767E0DF
:104980000998D0F85401002861D0FFE70C9800285E
:104990005DD0FFE7099890F84C0150B9FFE70998FE
:1049A000D0F8500120B1FFE7099800F065F8FFE763
:1049B0004CE0099890F85901FF281AD1FFE70998AF
:1049C000D0F85401407C50B1FFE7099890F85801A5
:1049D00028B1FFE70999FE2081F8590108E00999FB
:1049E00091F84C21012000EB520081F85901FFE7BA
:1049F000FFE7099890F85901FE2813D1FFE70999BC
:104A0000D1F85401807C91F85811884209D1FFE710
:104A1000099991F84C0181F85901099800F02CF896
:104A2000FFE712E0099991F85901013881F859011D
:104A3000000648B9FFE7099991F84C0181F859013E
:104A4000099800F019F8FFE7FFE7FFE7FFE7FFE746
:104A50000FE009990120C1F8500109990020C1F81F
:104A600068010999C1F864010999FF2081F8590189
:104A7000FFE70AB080BD000080B590B00F900F989E
:104A80000E900F98D0F8480105300D900F9890F8CF
:104A90004C110120019049B1FFE70F9890F84C119B
:104AA0000020FD29C8BF01200190FFE7019800F018
:104AB00001000C9000208DF82F00FFE79DF82F00DB
:104AC0000E99497B884269DAFFE70E989DF82F100E
:104AD000C1EBC10100EB810010300A900A980990E7
:104AE0000998C0688DF82300099880680790079896
:104AF000092803D3FFE708200790FFE707989DF8F0
:104B00002310884206D9FFE700200690059005A8EB
:104B1000049002E00D980490FFE709990020C86016
:104B20000A98D0F814C009980499079A03ABE04793
:104B30009DF823000999C86007989DF823108842C2
:104B400007D9FFE70D989DF8232005A9FBF7EAFA9E
:104B5000FFE70E989DF82F1000EB8100D0F8F000D1
:104B60000290029870B1FFE70C9858B1FFE70E98D9
:104B70009DF82F10084490F81021029908781043EE
:104B80000870FFE79DF823100D9808440D90FFE78B
:104B90009DF82F0001308DF82F008FE70F9900202E
:104BA000C1F850010F99D1F86001C1F868010F995F
:104BB000D1F85C01C1F864010E9840680F99D1F8F2
:104BC0004811FCF7E9F810B080BD000080B582B054
:104BD0000190019808B9FFE743E001984068FBF7AE
:104BE000B7FC0198C06806F06BFD0198806806F07C
:104BF00067FD0198406806F063FD0198C06B06F000
:104C00005FFD0198806B06F05BFD0198406B06F03C
:104C100057FD0198006B06F053FD0198C06A06F03D
:104C20004FFD0198806A06F04BFD0198406A06F03E
:104C300047FD0198C06906F043FD0198006A06F03F
:104C40003FFD0198806906F03BFD0198406906F040
:104C500037FD0198006906F033FD019806F030FD3C
:104C6000FFE702B080BD00008CB0DDF830C00890D6
:104C700007918DF81B20ADF81830089808B9FFE7A8
:104C8000B4E09DF81B00C0088DF817009DF81B00CC
:104C900000F00701012088408DF816009DF81700EC
:104CA0000A280EDBFFE705208DF8170001208DF89C
:104CB00016004FF4C240ADF818009DF81B000C9090
:104CC000FFE708989DF817100844049004980078AE
:104CD0009DF8161008408DF80F00079830B1FFE7D7
:104CE0009DF80F0008B1FFE780E008E09DF80F0095
:104CF00008B9FFE77AE00020ADF81800FFE79DF85B
:104D00001B10BDF8180040EA016002900C98019059
:104D1000FFE7EFF310800990099808994969086343
:104D2000EFF3108072B60A90FFE7079838B1FFE7FB
:104D30009DF81620049908781043087006E09DF845
:104D400016200499087890430870FFE70898007FC0
:104D5000022843DBFFE70898407F8DF803009DF8A9
:104D6000030001308DF802009DF802000899097FC8
:104D7000884204DBFFE700208DF80200FFE79DF882
:104D800002000899897F884204D1FFE70899012031
:104D9000C87722E00298089989699DF8032041F8B4
:104DA00032000198089989699DF8032001EBC2013E
:104DB00048609DF80200089948770898017F90F8AC
:104DC00020000139884207DAFFE7089991F82000AE
:104DD000013081F82000FFE7FFE7FFE7089840690E
:104DE000006B0B900B9880F31088FFE70CB07047B6
:104DF00082B00190019820B1FFE70198C06818B90E
:104E0000FFE70020009004E00198C068007800905F
:104E1000FFE70098C0B202B07047000082B0019076
:104E2000019820B1FFE70198C06818B9FFE700209A
:104E3000009004E00198C06800780090FFE70098B7
:104E4000C0B202B07047000082B0019001980088A3
:104E5000ADF80200BDF8020002B0704782B00190C8
:104E600001980088ADF80200BDF8020002B070475A
:104E700082B0019001980088ADF80200BDF80200F0
:104E800002B0704782B001900198006800900098CD
:104E900002B0704782B001900198006800900098BD
:104EA00002B0704782B001900198006800900098AD
:104EB00002B0704782B0019001980068009000989D
:104EC00002B0704782B0019001980068009000988D
:104ED00002B0704782B00190019800788DF803000D
:104EE0009DF8030002B0704782B0019001980078ED
:104EF0008DF803009DF8030002B0704782B0019066
:104F0000019800788DF803009DF8030002B0704707
:104F100082B00190019800788DF803009DF803009D
:104F200002B0704783B002908DF807109DF807001B
:104F3000C0088DF806009DF8070000F00701012069
:104F400000FA01F18DF805100299009099B1FFE780
:104F50009DF806100120092900900CDCFFE702985B
:104F60009DF80610405C9DF805100840002818BF09
:104F700001200090FFE7009800F0010003B07047A7
:104F800083B002908DF807109DF80700C0088DF8D7
:104F900006009DF8070000F00701012000FA01F16A
:104FA0008DF805100299009099B1FFE79DF8061061
:104FB0000120092900900CDCFFE702989DF80610FB
:104FC000405C9DF805100840002818BF01200090A3
:104FD000FFE7009800F0010003B0704780B586B08D
:104FE000059004910020039002900190FFE70120BA
:104FF0004021FBF7D0F8039020B1FFE70198403043
:10500000019000E0E0E001202C21FBF7C4F80399B7
:10501000086120B1FFE701982C30019000E0D3E057
:1050200008208DF8030001203021FBF7B4F8039924
:10503000486120B1FFE701983030019000E0C3E003
:105040009DF803001021FBF7A6F80399886138B199
:10505000FFE79DF80310019800EB0110019000E0BC
:10506000B2E001205021FBF796F80399C86120B106
:10507000FFE701985030019000E0A5E011208DF885
:1050800002009DF80200022812DBFFE79DF80200F3
:105090000821FBF780F80399086238B1FFE79DF813
:1050A0000210019800EBC100019000E08CE0FFE7E6
:1050B0000120A821FBF76FF80399486220B1FFE7B0
:1050C0000198A830019000E07EE001202C21FBF740
:1050D00062F80399886220B1FFE701982C300190B3
:1050E00000E071E001206021FBF755F80399C862E8
:1050F00020B1FFE701986030019000E064E00420F7
:105100004FF4BA71FBF747F80399086328B1FFE73A
:10511000019800F5BA60019000E055E004204FF4DA
:10512000B671FBF738F80399486328B1FFE7019897
:1051300000F5B660019000E046E001200C21FBF78D
:105140002AF80399886320B1FFE701980C30019099
:1051500000E039E001207421FBF71DF80399C863D2
:1051600020B1FFE701987430019000E02CE00120AD
:105170003821FBF710F80399486020B1FFE7019848
:105180003830019000E01FE011200C21FBF703F8FC
:105190000399886020B1FFE70198CC30019000E0CE
:1051A00012E009201821FAF7F6FF0399C86020B130
:1051B000FFE70198D830019000E005E00399012055
:1051C000086003980290FFE7029820B9FFE7039870
:1051D000FFF7FCFCFFE7049820B1FFE70198049972
:1051E0000860FFE7029806B080BD00002DE9F0419D
:1051F000A2B020901F911E921D9300208DF8730085
:1052000020980069FDF760F98DF872009DF9721021
:1052100001207F29169008D0FFE79DF9720005381C
:10522000B0FA80F040091690FFE7169800F00100F0
:105230001B9020984068FBF76FFA2098C06BFCF732
:105240002BFE20B1FFE701208DF87300FFE72098C7
:1052500000681A9020984068408AADF866000020E7
:1052600018902098C06BFCF75FFD012803D1FFE781
:1052700001201890FFE72098806B14901E981590DD
:105280001A9818B1FFE70020139003E09DF972000F
:105290001390FFE7139840B20F9018981090BDF844
:1052A0006600C0F38001119140F2033108400028EC
:1052B00018BF012012901A9818B1FFE700200E9035
:1052C00006E02098C0691821FFF72CFE0E90FFE73A
:1052D0000E980D901A9818B1FFE700200C9018E076
:1052E0002098C0691B21FFF71DFE014601200B908D
:1052F00051B9FFE72098C0691C21FFF713FE002871
:1053000018BF01200B90FFE70B9800F001000C90F4
:10531000FFE7129C0D9E0C9F2098C069FFF768FD67
:10532000DDF844C00F9A1599109B80461498B8F187
:10533000000F18BF4FF001081D9DEE46CDF828E084
:10534000CEF81C500025CEF81850CEF81480CEF8B8
:105350001070CEF80C60CEF80850CEF80440CEF8AD
:1053600000C052B2FCF7C4FA2098006860B1FFE7B1
:105370004BF6E561C0F60001002004F087FD9DF8C2
:1053800073008DF8870051E02098C0691B991E9A20
:105390001D9BFBF79FFE209800691E9A1D9B0DF137
:1053A0007201FDF7A9F98DF873009DF972100120C3
:1053B0007F29099008D0FFE79DF972000538B0FAFF
:1053C00080F040090990FFE7099800F001001B9068
:1053D00000208DF85F00FFE79DF85F00002813DCD8
:1053E000FFE72098426A9DF85F00A82100FB01209A
:1053F0001B991E9A1D9BFEF711F8FFE79DF85F00B1
:1054000001308DF85F00E7E7209840691B991E9AEC
:105410001D9BFCF761F92098806A1B991E9AFEF784
:10542000CBFF9DF873008DF88700FFE79DF887009C
:1054300022B0BDE8F081000080B588B007900691E9
:10544000059204930798006808B1FFE72AE00798DF
:105450000069FDF739F80538B0FA80F0400903908B
:105460000020ADF80A00FFE7BDF90A00032819DCA7
:10547000FFE70798026BBDF90A004FF4BA7100FB11
:1054800001200599049A039BDDF818C0EE46CEF87A
:1054900000C0FDF759FCFFE7BDF80A000130ADF888
:1054A0000A00E1E708B080BD80B58AB00990089194
:1054B00007920020069009980068D0BBFFE7099882
:1054C0000069FDF701F88DF817009DF9171001200C
:1054D0007F29029008D0FFE79DF917000538B0FA40
:1054E00080F040090290FFE7029800F0010004906C
:1054F0000998C06A0499089A079BFEF791FD8DF8F8
:105500000F009DF80F000146019140B1FFE701989F
:10551000012805D0FFE70198022804D008E007E041
:105520000120069004E009984068FAF71DFFFFE7A4
:10553000FFE706980AB080BD80B588B00790069155
:10554000059204930798006808B1FFE72AE00798DE
:105550000069FCF7B9FF0538B0FA80F04009039004
:105560000020ADF80A00FFE7BDF90A00032819DCA6
:10557000FFE70798426BBDF90A004FF4B67100FBD4
:1055800001200599049A039BDDF818C0EE46CEF879
:1055900000C0FFF751F9FFE7BDF80A000130ADF890
:1055A0000A00E1E708B080BD82B001900091019946
:1055B00000980860042002B07047000082B001909B
:1055C0000091019900980860042002B07047000023
:1055D00082B001908DF8031001999DF803000870C6
:1055E000012002B0704700007047000080B54FF402
:1055F000005000F0D1FF80BD81B0EFF3108072B693
:105600000090FFE7FEE7000084B00290019102984D
:1056100090F820008DF803009DF80300012805D0C4
:10562000FFE79DF8030002280AD1FFE7019A0298DC
:10563000016848691043486100208DF80F0008E0B8
:105640000299486A40F48020486201208DF80F00DA
:10565000FFE79DF80F0004B07047000088B0069087
:10566000059104920393069890F820008DF80700A6
:1056700006980068806800900598806808B9FFE780
:1056800000E0FFE79DF80700012806D0FFE79DF83E
:105690000700022840F08080FFE79DF803004007E4
:1056A00000280CD4FFE79DF803000007002806D46B
:1056B000FFE79DF80300C006002864D5FFE70098C7
:1056C000C0F30160029002990120884003990860AC
:1056D0000598806868B9FFE705980168C06840EAE6
:1056E000415006990968029A01EB0211C1F8800144
:1056F0000EE005994A688868C96840EAC200084314
:1057000006990968029A01EB0211C1F88001FFE7CE
:105710000598006906990968029A01EB0211C1F81F
:1057200084010598007D01280CD1FFE706980068E8
:10573000029900EB0111D1F8840140F48070C1F8A6
:105740008401FFE70498406806990968029A01EB12
:105750000211C1F88C010498006806990968029A40
:1057600001EB0211C1F8880106980068029900EB6C
:105770000111D1F8800140F00100C1F88001002042
:105780008DF81F0011E00699486A40F40010486245
:1057900001208DF81F0008E00699486A40F4802037
:1057A000486201208DF81F00FFE79DF81F0008B038
:1057B0007047000086B0049003910498006801903F
:1057C000049890F820008DF803009DF8030001284C
:1057D00006D0FFE79DF80300022840F09B80FFE71A
:1057E0000199D1F8000240F00100C1F800020398CD
:1057F000406900F01F01012088400290029A01993F
:10580000D1F81C029043C1F81C020398C069F0B99A
:10581000FFE7029A0199D1F80C029043C1F80C02FB
:10582000039A9088D168526940EA0140019901EBDE
:10583000C201C1F84002039A10889168526940EA97
:105840000140019901EBC201C1F84402FFE703984E
:10585000C06901281ED1FFE7029A0199D1F80C0214
:105860001043C1F80C02039A90881168526940EA0B
:105870000140019901EBC201C1F84002039A9089ED
:105880009168526940EA0140019901EBC201C1F8F7
:105890004402FFE70398806940B9FFE7029A019943
:1058A000D1F804029043C1F8040207E0029A01997A
:1058B000D1F804021043C1F80402FFE7039800691D
:1058C00040B9FFE7029A0199D1F814029043C1F858
:1058D000140207E0029A0199D1F814021043C1F8AA
:1058E0001402FFE70398006A012808D1FFE7029A33
:1058F0000199D1F81C021043C1F81C02FFE701997D
:10590000D1F8000220F00100C1F8000200208DF85B
:10591000170008E00499486A40F48020486201209A
:105920008DF81700FFE79DF8170006B070470000DC
:1059300081B0009001B0704786B00490039102924C
:105940000193049890F820008DF803009DF803005F
:10595000012806D0FFE79DF80300022840F0E88008
:10596000FFE7039880B9FFE704980068C0688007E4
:1059700048B9FFE70499486A40F4001048620120E2
:105980008DF81700DDE00FE00498006800698007DB
:1059900048B9FFE70499486A40F4001048620120C2
:1059A0008DF81700CDE0FFE704980068039900EB3D
:1059B0000110D0F8B00100F004000299886002984C
:1059C000806858B9FFE704980068039900EB01105C
:1059D000D0F8B001400D029908600AE00498006810
:1059E000039900EB0110D0F8B001C008029948609B
:1059F000FFE704980068039900EB0110D0F8B001AC
:105A000000F002000299C86004980068039900EB56
:105A10000110D0F8B40100F00F00082804D3FFE70C
:105A20000299082008610BE004980068039900EBD4
:105A30000110D0F8B40100F00F0002990861FFE7EF
:105A400004980068039900EB0110D0F8B40180B20B
:105A5000000A0299886104980068039900EB01101C
:105A6000D0F8B401000C02994861049800680399C9
:105A700000EB0110D0F8B801019908700498006893
:105A8000039900EB0110D0F8B801000A01994870A1
:105A900004980068039900EB0110D0F8B801000CDD
:105AA0000199887004980068039900EB0110D0F800
:105AB000B801000E0199C87004980068039900EBC2
:105AC0000110D0F8BC01019908710498006803998D
:105AD00000EB0110D0F8BC01000A0199487104984C
